{
  "_format": "hh-sol-artifact-1",
  "contractName": "FirefliesRaffle",
  "sourceName": "contracts/FirefliesRaffle.sol",
  "abi": [
    {
      "inputs": [
        {
          "internalType": "address",
          "name": "_pancakeRouter",
          "type": "address"
        },
        {
          "internalType": "address",
          "name": "_wbnb",
          "type": "address"
        }
      ],
      "stateMutability": "nonpayable",
      "type": "constructor"
    },
    {
      "inputs": [],
      "name": "EnforcedPause",
      "type": "error"
    },
    {
      "inputs": [],
      "name": "ExpectedPause",
      "type": "error"
    },
    {
      "inputs": [],
      "name": "InvalidAmount",
      "type": "error"
    },
    {
      "inputs": [],
      "name": "InvalidCurrencyToken",
      "type": "error"
    },
    {
      "inputs": [],
      "name": "InvalidFee",
      "type": "error"
    },
    {
      "inputs": [],
      "name": "InvalidPrice",
      "type": "error"
    },
    {
      "inputs": [],
      "name": "InvalidTickets",
      "type": "error"
    },
    {
      "inputs": [],
      "name": "InvalidTime",
      "type": "error"
    },
    {
      "inputs": [],
      "name": "InvalidWinner",
      "type": "error"
    },
    {
      "inputs": [],
      "name": "MaxTicketsExceeded",
      "type": "error"
    },
    {
      "inputs": [],
      "name": "MinTicketsNotMet",
      "type": "error"
    },
    {
      "inputs": [],
      "name": "NotOperator",
      "type": "error"
    },
    {
      "inputs": [
        {
          "internalType": "address",
          "name": "owner",
          "type": "address"
        }
      ],
      "name": "OwnableInvalidOwner",
      "type": "error"
    },
    {
      "inputs": [
        {
          "internalType": "address",
          "name": "account",
          "type": "address"
        }
      ],
      "name": "OwnableUnauthorizedAccount",
      "type": "error"
    },
    {
      "inputs": [],
      "name": "RaffleEnded",
      "type": "error"
    },
    {
      "inputs": [],
      "name": "RaffleNotActive",
      "type": "error"
    },
    {
      "inputs": [],
      "name": "RaffleNotEnded",
      "type": "error"
    },
    {
      "inputs": [],
      "name": "RaffleNotFound",
      "type": "error"
    },
    {
      "inputs": [],
      "name": "ReentrancyGuardReentrantCall",
      "type": "error"
    },
    {
      "inputs": [],
      "name": "TransferFailed",
      "type": "error"
    },
    {
      "inputs": [],
      "name": "WalletCapExceeded",
      "type": "error"
    },
    {
      "anonymous": false,
      "inputs": [
        {
          "indexed": false,
          "internalType": "address",
          "name": "token",
          "type": "address"
        },
        {
          "indexed": false,
          "internalType": "uint256",
          "name": "amount",
          "type": "uint256"
        }
      ],
      "name": "ERC20Withdrawn",
      "type": "event"
    },
    {
      "anonymous": false,
      "inputs": [
        {
          "indexed": false,
          "internalType": "uint256",
          "name": "amount",
          "type": "uint256"
        }
      ],
      "name": "FeeCollected",
      "type": "event"
    },
    {
      "anonymous": false,
      "inputs": [
        {
          "indexed": false,
          "internalType": "uint256",
          "name": "amount",
          "type": "uint256"
        }
      ],
      "name": "NativeWithdrawn",
      "type": "event"
    },
    {
      "anonymous": false,
      "inputs": [
        {
          "indexed": false,
          "internalType": "address",
          "name": "operator",
          "type": "address"
        },
        {
          "indexed": false,
          "internalType": "bool",
          "name": "status",
          "type": "bool"
        }
      ],
      "name": "OperatorUpdated",
      "type": "event"
    },
    {
      "anonymous": false,
      "inputs": [
        {
          "indexed": true,
          "internalType": "address",
          "name": "previousOwner",
          "type": "address"
        },
        {
          "indexed": true,
          "internalType": "address",
          "name": "newOwner",
          "type": "address"
        }
      ],
      "name": "OwnershipTransferred",
      "type": "event"
    },
    {
      "anonymous": false,
      "inputs": [
        {
          "indexed": false,
          "internalType": "address",
          "name": "account",
          "type": "address"
        }
      ],
      "name": "Paused",
      "type": "event"
    },
    {
      "anonymous": false,
      "inputs": [
        {
          "indexed": true,
          "internalType": "string",
          "name": "referenceId",
          "type": "string"
        },
        {
          "indexed": false,
          "internalType": "uint256",
          "name": "totalTickets",
          "type": "uint256"
        },
        {
          "indexed": false,
          "internalType": "uint256",
          "name": "ticketPrice",
          "type": "uint256"
        }
      ],
      "name": "RaffleCreated",
      "type": "event"
    },
    {
      "anonymous": false,
      "inputs": [
        {
          "indexed": false,
          "internalType": "uint256",
          "name": "newFee",
          "type": "uint256"
        }
      ],
      "name": "ServiceFeeUpdated",
      "type": "event"
    },
    {
      "anonymous": false,
      "inputs": [
        {
          "indexed": true,
          "internalType": "string",
          "name": "referenceId",
          "type": "string"
        },
        {
          "indexed": true,
          "internalType": "address",
          "name": "buyer",
          "type": "address"
        },
        {
          "indexed": false,
          "internalType": "uint256",
          "name": "quantity",
          "type": "uint256"
        }
      ],
      "name": "TicketsPurchased",
      "type": "event"
    },
    {
      "anonymous": false,
      "inputs": [
        {
          "indexed": false,
          "internalType": "address",
          "name": "account",
          "type": "address"
        }
      ],
      "name": "Unpaused",
      "type": "event"
    },
    {
      "anonymous": false,
      "inputs": [
        {
          "indexed": true,
          "internalType": "string",
          "name": "referenceId",
          "type": "string"
        },
        {
          "indexed": true,
          "internalType": "address",
          "name": "winner",
          "type": "address"
        }
      ],
      "name": "WinnerSelected",
      "type": "event"
    },
    {
      "stateMutability": "payable",
      "type": "fallback"
    },
    {
      "inputs": [],
      "name": "WBNB",
      "outputs": [
        {
          "internalType": "address",
          "name": "",
          "type": "address"
        }
      ],
      "stateMutability": "view",
      "type": "function"
    },
    {
      "inputs": [
        {
          "internalType": "string",
          "name": "referenceId",
          "type": "string"
        },
        {
          "internalType": "uint256",
          "name": "quantity",
          "type": "uint256"
        }
      ],
      "name": "calculateServiceFee",
      "outputs": [
        {
          "internalType": "uint256",
          "name": "",
          "type": "uint256"
        }
      ],
      "stateMutability": "view",
      "type": "function"
    },
    {
      "inputs": [
        {
          "internalType": "string",
          "name": "referenceId",
          "type": "string"
        },
        {
          "internalType": "uint256",
          "name": "totalTickets",
          "type": "uint256"
        },
        {
          "internalType": "uint256",
          "name": "ticketPrice",
          "type": "uint256"
        },
        {
          "internalType": "address",
          "name": "currencyToken",
          "type": "address"
        },
        {
          "internalType": "uint256",
          "name": "startTime",
          "type": "uint256"
        },
        {
          "internalType": "uint256",
          "name": "endTime",
          "type": "uint256"
        },
        {
          "internalType": "bool",
          "name": "isWalletCap",
          "type": "bool"
        },
        {
          "internalType": "uint256",
          "name": "walletCap",
          "type": "uint256"
        },
        {
          "internalType": "bool",
          "name": "isMinTicketsNeededToDraw",
          "type": "bool"
        },
        {
          "internalType": "uint256",
          "name": "minTicketsToDraw",
          "type": "uint256"
        },
        {
          "internalType": "bool",
          "name": "drawOnLastTicket",
          "type": "bool"
        }
      ],
      "name": "createRaffle",
      "outputs": [],
      "stateMutability": "nonpayable",
      "type": "function"
    },
    {
      "inputs": [
        {
          "internalType": "string",
          "name": "referenceId",
          "type": "string"
        }
      ],
      "name": "drawWinner",
      "outputs": [],
      "stateMutability": "nonpayable",
      "type": "function"
    },
    {
      "inputs": [
        {
          "internalType": "string",
          "name": "referenceId",
          "type": "string"
        }
      ],
      "name": "getRaffleDetails",
      "outputs": [
        {
          "components": [
            {
              "internalType": "uint256",
              "name": "totalTickets",
              "type": "uint256"
            },
            {
              "internalType": "uint256",
              "name": "ticketPrice",
              "type": "uint256"
            },
            {
              "internalType": "address",
              "name": "currencyToken",
              "type": "address"
            },
            {
              "internalType": "uint256",
              "name": "startTime",
              "type": "uint256"
            },
            {
              "internalType": "uint256",
              "name": "endTime",
              "type": "uint256"
            },
            {
              "internalType": "bool",
              "name": "isWalletCap",
              "type": "bool"
            },
            {
              "internalType": "uint256",
              "name": "walletCap",
              "type": "uint256"
            }
          ],
          "internalType": "struct FirefliesRaffle.RaffleConfig",
          "name": "config",
          "type": "tuple"
        },
        {
          "components": [
            {
              "internalType": "bool",
              "name": "isMinTicketsNeededToDraw",
              "type": "bool"
            },
            {
              "internalType": "uint256",
              "name": "minTicketsToDraw",
              "type": "uint256"
            },
            {
              "internalType": "bool",
              "name": "drawOnLastTicket",
              "type": "bool"
            },
            {
              "internalType": "uint256",
              "name": "soldTickets",
              "type": "uint256"
            },
            {
              "internalType": "bool",
              "name": "isDrawn",
              "type": "bool"
            },
            {
              "internalType": "address",
              "name": "winner",
              "type": "address"
            }
          ],
          "internalType": "struct FirefliesRaffle.RaffleState",
          "name": "state",
          "type": "tuple"
        }
      ],
      "stateMutability": "view",
      "type": "function"
    },
    {
      "inputs": [
        {
          "internalType": "string",
          "name": "referenceId",
          "type": "string"
        },
        {
          "internalType": "uint256",
          "name": "ticketId",
          "type": "uint256"
        }
      ],
      "name": "getTicketOwner",
      "outputs": [
        {
          "internalType": "address",
          "name": "",
          "type": "address"
        }
      ],
      "stateMutability": "view",
      "type": "function"
    },
    {
      "inputs": [
        {
          "internalType": "string",
          "name": "referenceId",
          "type": "string"
        },
        {
          "internalType": "address",
          "name": "user",
          "type": "address"
        }
      ],
      "name": "getUserTickets",
      "outputs": [
        {
          "internalType": "uint256",
          "name": "",
          "type": "uint256"
        }
      ],
      "stateMutability": "view",
      "type": "function"
    },
    {
      "inputs": [
        {
          "internalType": "address",
          "name": "",
          "type": "address"
        }
      ],
      "name": "operators",
      "outputs": [
        {
          "internalType": "bool",
          "name": "",
          "type": "bool"
        }
      ],
      "stateMutability": "view",
      "type": "function"
    },
    {
      "inputs": [],
      "name": "owner",
      "outputs": [
        {
          "internalType": "address",
          "name": "",
          "type": "address"
        }
      ],
      "stateMutability": "view",
      "type": "function"
    },
    {
      "inputs": [],
      "name": "pancakeRouter",
      "outputs": [
        {
          "internalType": "contract IPancakeRouter",
          "name": "",
          "type": "address"
        }
      ],
      "stateMutability": "view",
      "type": "function"
    },
    {
      "inputs": [],
      "name": "pause",
      "outputs": [],
      "stateMutability": "nonpayable",
      "type": "function"
    },
    {
      "inputs": [],
      "name": "paused",
      "outputs": [
        {
          "internalType": "bool",
          "name": "",
          "type": "bool"
        }
      ],
      "stateMutability": "view",
      "type": "function"
    },
    {
      "inputs": [
        {
          "internalType": "string",
          "name": "referenceId",
          "type": "string"
        },
        {
          "internalType": "uint256",
          "name": "quantity",
          "type": "uint256"
        }
      ],
      "name": "purchaseTickets",
      "outputs": [],
      "stateMutability": "payable",
      "type": "function"
    },
    {
      "inputs": [
        {
          "internalType": "string",
          "name": "",
          "type": "string"
        }
      ],
      "name": "raffleConfigs",
      "outputs": [
        {
          "internalType": "uint256",
          "name": "totalTickets",
          "type": "uint256"
        },
        {
          "internalType": "uint256",
          "name": "ticketPrice",
          "type": "uint256"
        },
        {
          "internalType": "address",
          "name": "currencyToken",
          "type": "address"
        },
        {
          "internalType": "uint256",
          "name": "startTime",
          "type": "uint256"
        },
        {
          "internalType": "uint256",
          "name": "endTime",
          "type": "uint256"
        },
        {
          "internalType": "bool",
          "name": "isWalletCap",
          "type": "bool"
        },
        {
          "internalType": "uint256",
          "name": "walletCap",
          "type": "uint256"
        }
      ],
      "stateMutability": "view",
      "type": "function"
    },
    {
      "inputs": [
        {
          "internalType": "string",
          "name": "",
          "type": "string"
        }
      ],
      "name": "raffleStates",
      "outputs": [
        {
          "internalType": "bool",
          "name": "isMinTicketsNeededToDraw",
          "type": "bool"
        },
        {
          "internalType": "uint256",
          "name": "minTicketsToDraw",
          "type": "uint256"
        },
        {
          "internalType": "bool",
          "name": "drawOnLastTicket",
          "type": "bool"
        },
        {
          "internalType": "uint256",
          "name": "soldTickets",
          "type": "uint256"
        },
        {
          "internalType": "bool",
          "name": "isDrawn",
          "type": "bool"
        },
        {
          "internalType": "address",
          "name": "winner",
          "type": "address"
        }
      ],
      "stateMutability": "view",
      "type": "function"
    },
    {
      "inputs": [],
      "name": "renounceOwnership",
      "outputs": [],
      "stateMutability": "nonpayable",
      "type": "function"
    },
    {
      "inputs": [],
      "name": "serviceFeePercent",
      "outputs": [
        {
          "internalType": "uint256",
          "name": "",
          "type": "uint256"
        }
      ],
      "stateMutability": "view",
      "type": "function"
    },
    {
      "inputs": [
        {
          "internalType": "address",
          "name": "operator",
          "type": "address"
        },
        {
          "internalType": "bool",
          "name": "status",
          "type": "bool"
        }
      ],
      "name": "setOperator",
      "outputs": [],
      "stateMutability": "nonpayable",
      "type": "function"
    },
    {
      "inputs": [
        {
          "internalType": "uint256",
          "name": "newFee",
          "type": "uint256"
        }
      ],
      "name": "setServiceFee",
      "outputs": [],
      "stateMutability": "nonpayable",
      "type": "function"
    },
    {
      "inputs": [
        {
          "internalType": "address",
          "name": "newOwner",
          "type": "address"
        }
      ],
      "name": "transferOwnership",
      "outputs": [],
      "stateMutability": "nonpayable",
      "type": "function"
    },
    {
      "inputs": [],
      "name": "unpause",
      "outputs": [],
      "stateMutability": "nonpayable",
      "type": "function"
    },
    {
      "inputs": [
        {
          "internalType": "string",
          "name": "",
          "type": "string"
        },
        {
          "internalType": "address",
          "name": "",
          "type": "address"
        }
      ],
      "name": "userTickets",
      "outputs": [
        {
          "internalType": "uint256",
          "name": "",
          "type": "uint256"
        }
      ],
      "stateMutability": "view",
      "type": "function"
    },
    {
      "inputs": [
        {
          "internalType": "address",
          "name": "token",
          "type": "address"
        }
      ],
      "name": "withdrawErc20",
      "outputs": [],
      "stateMutability": "nonpayable",
      "type": "function"
    },
    {
      "inputs": [],
      "name": "withdrawNative",
      "outputs": [],
      "stateMutability": "nonpayable",
      "type": "function"
    },
    {
      "stateMutability": "payable",
      "type": "receive"
    }
  ],
  "bytecode": "0x60c03461010557601f611a3f38819003918201601f19168301916001600160401b0383118484101761010a57808492604094855283398101031261010557610052602061004b83610120565b9201610120565b33156100ef5760008054336001600160a01b0319821681178355604051949290916001600160a01b0316907f8be0079c531659141344cd1fd0a4f28419497f9722a3daafe3b4186f6b6457e09080a3600180556002805460ff1916905560646003556001600160a01b031660805260a05261190a908161013582396080518181816109630152611562015260a0518181816109c601526114b00152f35b631e4fbdf760e01b600052600060045260246000fd5b600080fd5b634e487b7160e01b600052604160045260246000fd5b51906001600160a01b03821682036101055756fe60806040526004361015610010575b005b60003560e01c806313a6bfa3146110a657806313e7c9d8146110675780631d4aa96614610fd25780632710e0ea14610ccd57806329ea157514610cac5780633f4ba83a14610c4357806350431ce414610bd6578063558a729714610b4a5780635c975abb14610b275780635cdf76f814610ad1578063715018a614610a785780638456cb5914610a1e5780638da5cb5b146109f55780638dd95002146109b0578063995bc51e146109925780639e06751b146102fc578063c21ebd071461094d578063c7e42b1b14610800578063d5f0c3db1461075e578063d788d89914610724578063e0604e0114610344578063efa4fa67146102fc578063f0935d7b146101ab5763f2fde38b0361000e57346101a65760203660031901126101a657610136611374565b61013e6116fb565b6001600160a01b0316801561019057600080546001600160a01b03198116831782556001600160a01b0316907f8be0079c531659141344cd1fd0a4f28419497f9722a3daafe3b4186f6b6457e09080a3005b631e4fbdf760e01b600052600060045260246000fd5b600080fd5b346101a65760203660031901126101a6576004356001600160401b0381116101a6576101db90369060040161132d565b33600052600660205260ff6040600020541615806102e7575b6102d657610200611724565b610209816116d8565b156102c55760405160208161021e818561138a565b60048152030190206004604051602081610238818761138a565b60058152030190209101544210806102b6575b6102a55760ff81541680610294575b610283576004015460ff166102725761000e90611759565b63502fd88d60e01b60005260046000fd5b633681961d60e11b60005260046000fd5b50600381015460018201541161025a565b633a53ae3b60e21b60005260046000fd5b5060ff6002820154161561024b565b638a59159560e01b60005260046000fd5b631f0853c160e21b60005260046000fd5b506000546001600160a01b03163314156101f4565b346101a657602061031d61030f366113e6565b92906040519283809261138a565b60078152030190209060018060a01b03166000526020526020604060002054604051908152f35b61034d366113b5565b600260015414610713576002600155610364611724565b61036d826116d8565b156102c557604051602081610382818661138a565b600481520301902060405160208161039a818761138a565b6005815203019020600382015442108015610705575b6106f45760038101926103c48185546116cb565b8354106106e35760ff600584015416806106a1575b610690576103e78186611460565b80341061067f576040516020816103fe818a61138a565b60048152030190209060006020604051818161041a818d61138a565b600581520301902093606461043f876001808060a01b03600286015416940154611427565b60405194859384926323b872dd60e01b845233600485015230602485015260448401525af1801561067357610646575b508034116105f9575b5060030180549060405160208161048f818b61138a565b600781520301902060018060a01b03331660005260205260406000206104b68482546116cb565b90556104c38382546116cb565b90553360005b8381106105495750505060ff91600291604051806104e7818a61138a565b0390206040519182527f22ccebfe497c0bb1edb6df7b2d894293a46b7b916159671b46207dee6248225560203393a3015416918261053c575b505061052d575b60018055005b61053690611759565b80610527565b5490541490508280610520565b61055381846116cb565b90604051602081610564818d61138a565b600881520301902091825492680100000000000000008410156105e357836105929160018096018155611741565b815460001960039290921b91821b19169083901b1790556040516020816105b9818e61138a565b600981520301902060009182526020526040902080546001600160a01b03191684179055016104c9565b634e487b7160e01b600052604160045260246000fd5b340334811161063057600080808093335af1610613611683565b501561061f5786610478565b6312171d8360e31b60005260046000fd5b634e487b7160e01b600052601160045260246000fd5b6106679060203d60201161066c575b61065f81836112f1565b8101906116b3565b61046f565b503d610655565b6040513d6000823e3d90fd5b6358d620b360e01b60005260046000fd5b6341f5f85960e11b60005260046000fd5b506040516020816106b2818961138a565b600781520301902060018060a01b0333166000526020526106d8816040600020546116cb565b6006840154106103d9565b635c0c922560e01b60005260046000fd5b632ae47f7360e01b60005260046000fd5b5060048201544210156103b0565b633ee5aeb560e01b60005260046000fd5b346101a657602061073761030f366113b5565b600981520301902090600052602052602060018060a01b0360406000205416604051908152f35b346101a65760203660031901126101a6576004356001600160401b0381116101a6576107a1602061079560e093369060040161132d565b6040519283809261138a565b600481520301902080549060018101549060018060a01b036002820154166003820154600483015491600660ff600586015416940154946040519687526020870152604086015260608501526080840152151560a083015260c0820152f35b346101a65760203660031901126101a657610819611374565b6108216116fb565b6040516370a0823160e01b81523060048201526001600160a01b038216602082602481845afa91821561067357600092610916575b508115610905576000805460405163a9059cbb60e01b81526001600160a01b0390911660048201526024810184905291602091839160449183915af1908115610673576000916108e6575b501561061f57604080516001600160a01b0393909316835260208301919091527f7e2c99819371db0a6fc6f4269fe872496e44f502df19ba3eae594b7a1598746091a1005b6108ff915060203d60201161066c5761065f81836112f1565b836108a1565b63162908e360e11b60005260046000fd5b90916020823d602011610945575b81610931602093836112f1565b810103126109425750519083610856565b80fd5b3d9150610924565b346101a65760003660031901126101a6576040517f00000000000000000000000000000000000000000000000000000000000000006001600160a01b03168152602090f35b346101a65760003660031901126101a6576020600354604051908152f35b346101a65760003660031901126101a6576040517f00000000000000000000000000000000000000000000000000000000000000006001600160a01b03168152602090f35b346101a65760003660031901126101a6576000546040516001600160a01b039091168152602090f35b346101a65760003660031901126101a657610a376116fb565b610a3f611724565b600160ff1960025416176002557f62e78cea01bee320cd4e420270b5ea74000d11b0c9f74754ebdbfc544b05a2586020604051338152a1005b346101a65760003660031901126101a657610a916116fb565b600080546001600160a01b0319811682556001600160a01b03167f8be0079c531659141344cd1fd0a4f28419497f9722a3daafe3b4186f6b6457e08280a3005b346101a65760203660031901126101a657600435610aed6116fb565b6103e8811161067f576020817fcb6d7cd9a715c819bc5a96c171f645b81d4d65b57cfe7d6b5e8a12f78022995d92600355604051908152a1005b346101a65760003660031901126101a657602060ff600254166040519015158152f35b346101a65760403660031901126101a657610b63611374565b60243590811515918281036101a6577f966c160e1c4dbc7df8d69af4ace01e9297c3cf016397b7914971f2fbfa32672d92610bc9604093610ba26116fb565b60018060a01b031692836000526006602052846000209060ff801983541691151516179055565b82519182526020820152a1005b346101a65760003660031901126101a657610bef6116fb565b4780156109055760008080808460018060a01b038254165af1610c10611683565b501561061f5760207f9938f2f589885c9fe562d0c747cf40d24fe2402f63f4940c13c7a4d8ceeb592591604051908152a1005b346101a65760003660031901126101a657610c5c6116fb565b60025460ff811615610c9b5760ff19166002557f5db9ee0a495bf2e6ff9c91a7834c1ba4fdd244a5e8aa4e537bd38aeae4b073aa6020604051338152a1005b638dfc202b60e01b60005260046000fd5b346101a6576020610cc5610cbf366113b5565b90611460565b604051908152f35b346101a6576101603660031901126101a6576004356001600160401b0381116101a657610cfe90369060040161132d565b604435906064356001600160a01b03811690602435908290036101a6576084359160a4359360c43594851515958681036101a65760e435916101043590811515988983036101a657610124359261014435948515158096036101a65733600052600660205260ff604060002054161580610fbd575b6102d657838b10801590610fb4575b610fa3578c15610f93578915610f715780610f8b575b610f715780610f82575b610f71577fb139b4424733483196061f7b1d296cbc582722113447ba1599efefdc7fc2eb5f99886006610f5597610e888f95610f329760409f60409e610f609f998f6020610e2f9160049d519b610df88d6112bb565b8c52818c0193845260408c0194855260608c0195865260808c0196875260a08c0197885260c08c01998a526040519283809261138a565b8e81520301902098518955516001890155516002880180546001600160a01b039092166001600160a01b031990921691909117905551600387015551858801555160058501805460ff191691151560ff16919091179055565b51910155895190610e98826112d6565b8152602081019384528981019485526060810160008152610f1560808301966000885260a084019660008852610ef7610ed98f8d602091519283809261138a565b600581520301902095511515869060ff801983541691151516179055565b516001850155511515600284019060ff801983541691151516179055565b5160038201550192511515839060ff801983541691151516179055565b518154610100600160a81b03191660089190911b610100600160a81b0316179055565b83519182809261138a565b0390209382519182526020820152a2005b635bc0d01960e01b60005260046000fd5b50878311610da2565b508515610d98565b62bfc92160e01b60005260046000fd5b6337bf561360e11b60005260046000fd5b50428b10610d82565b506000546001600160a01b0316331415610d73565b346101a65760203660031901126101a6576004356001600160401b0381116101a657611009602061079560c093369060040161132d565b600581520301902060ff8154169060018101549060ff60028201541660046003830154920154926040519415158552602085015215156040840152606083015260ff81161515608083015260018060a01b039060081c1660a0820152f35b346101a65760203660031901126101a6576001600160a01b03611088611374565b166000526006602052602060ff604060002054166040519015158152f35b346101a65760203660031901126101a6576004356001600160401b0381116101a6576110d690369060040161132d565b600060c06040516110e6816112bb565b8281528260208201528260408201528260608201528260808201528260a08201520152600060a0604051611119816112d6565b828152826020820152826040820152826060820152826080820152015261113f816116d8565b156102c5576101a0906111716020604051818161115c818761138a565b6004815203019020926040519283809261138a565b60058152030190209060405191611187836112bb565b815483526001820154906020840191825260018060a01b0360028401541692604085019384526003810154906060860191825260048101549060808701918252600660ff6005830154169160a089019215158352015460c08801908152604051916111f1836112d6565b60ff865416151583526001860154936020840194855260ff60028801541695604085019615158752600460038901549860608701998a52015499608086019960ff8c1615158b5260a087019b60018060a01b039060081c168c526040519c518d525160208d015260018060a01b0390511660408c01525160608b01525160808a015251151560a08901525160c088015251151560e0870152516101008601525115156101208501525161014084015251151561016083015260018060a01b03905116610180820152f35b60e081019081106001600160401b038211176105e357604052565b60c081019081106001600160401b038211176105e357604052565b90601f801991011681019081106001600160401b038211176105e357604052565b6001600160401b0381116105e357601f01601f191660200190565b81601f820112156101a65780359061134482611312565b9261135260405194856112f1565b828452602083830101116101a657816000926020809301838601378301015290565b600435906001600160a01b03821682036101a657565b9081519160005b8381106113a2575050016000815290565b8060208092840101518185015201611391565b60406003198201126101a657600435906001600160401b0382116101a6576113df9160040161132d565b9060243590565b60406003198201126101a657600435906001600160401b0382116101a6576114109160040161132d565b906024356001600160a01b03811681036101a65790565b8181029291811591840414171561063057565b80516001101561144a5760400190565b634e487b7160e01b600052603260045260246000fd5b611469816116d8565b156102c5576114a561149c6114896020612710946040519283809261138a565b6004815203019020936001850154611427565b60035490611427565b6002909201549104907f00000000000000000000000000000000000000000000000000000000000000006001600160a01b0390811691168181036114e857505090565b9091604051926114f96060856112f1565b600284526020840192604036853784511561144a5783529092919061151d8361143a565b526040805163d06ca61f60e01b8152600481019490945260248401529051604483018190528291606483019160005b81811061166157506000939283900391508290507f00000000000000000000000000000000000000000000000000000000000000006001600160a01b03165afa908115610673576000916115a9575b506115a59061143a565b5190565b3d8083833e6115b881836112f1565b81019060208183031261165d578051906001600160401b03821161165957019181601f84011215610942578251926001600160401b038411611645578360051b91602083019461160b60405196876112f1565b85526020808601938301019384116109425750602001905b828210611635575050506115a561159b565b8151815260209182019101611623565b634e487b7160e01b82526041600452602482fd5b8380fd5b8280fd5b82516001600160a01b031684528594506020938401939092019160010161154c565b3d156116ae573d9061169482611312565b916116a260405193846112f1565b82523d6000602084013e565b606090565b908160209103126101a6575180151581036101a65790565b9190820180921161063057565b6116ec60206003926040519283809261138a565b60048152030190200154151590565b6000546001600160a01b0316330361170f57565b63118cdaa760e01b6000523360045260246000fd5b60ff6002541661173057565b63d93c066560e01b60005260046000fd5b805482101561144a5760005260206000200190600090565b604051602081611769818561138a565b60058152030190209060038201549081156102835760001943014381116106305760405160208161179a818661138a565b6008815203019020604051906020820192428452446040840152406060830152608082018154909160005260206000209060005b8181106118be57505050906117f081611817949303601f1981018352826112f1565b51902060009360206040518092611807828861138a565b9460088652069303019020611741565b90549060031b1c60405160208161182e818661138a565b600981520301902090835260205260408220546001600160a01b03169283156118af5760040180546001600160a81b031916610100600160a81b03600886901b161760011790556040517f8994284d793c65b1b90ec6dbc9452b1d2ac013d68ca9bc8fd0744306533c83859181906118a790829061138a565b0390209180a3565b6393a5f3c760e01b8352600483fd5b82548452602090930192600192830192016117ce56fea26469706673582212205f7ad30ddcf3dc972bfa4443dba661cdd1794affa53c803f6d431f011764aed764736f6c634300081c0033",
  "linkReferences": {},
  "deployedLinkReferences": {}
}